:0400000080313128F2
:100008007E14803120007F08F0008B1D1D282700FA
:10001800131D1D2820000C162700131120008C1614
:100028008C16000020000C160C167A0895000B118F
:100038008B168B1A0B1D2C2820000C1E29280C123D
:10004800790895000B118B162C288C128B120B112A
:1000580070082000FF007E10090080313328F80165
:10006800F901FA017E10200080313A28F030210091
:1000780099000430950023008C01EF3021008C009A
:100088002F3020008C003F3024008C0020008C167C
:10009800F70164307702031865280530F6000F3041
:1000A800F500F430F400F40B5728F50B5728F60B3D
:1000B80057280130F4007408F70764307702031CEE
:1000C800512820008C18652821008C1220008C12E1
:1000D8000430F4007408F800AA30F4007408FA0038
:1000E800D430F4007408F90021009D012200970122
:1000F8000430270091000430920093018B158B1770
:1001080020000C128C1280318B208031872820002F
:100118000C080139F1007108F2007208CE3E840023
:1001280080300318013E85000008F1007108F300D3
:10013800730878060319A7287308F1007108F800F6
:100148007808210095007208D63E84008030031894
:10015800013E85000008F1007108F30073087A0673
:100168000319BA287308F1007108FA007208D23E20
:10017800840080300318013E85000008F1007108F2
:10018800F30073087906031908007308F100710871
:10019800F90008000434043400340034D434EA3458
:0C01A80000340034AA34D4340034003495
:020000040001F9
:04000E00E4EFFFFF1D
:00000001FF
