:0400000080313128F2
:100008007E14803120007F08F0008B1D1D282700FA
:10001800131D1D2820000C162700131120008C1614
:100028008C16000020000C160C167A0895000B118F
:100038008B168B1A0B1D2C2820000C1E29280C123D
:10004800790895000B118B162C288C128B120B112A
:1000580070082000FF007E10090080313328F80165
:10006800F901FA017E10200080313A28F030210091
:1000780099000630950023008C01EF3021008C0098
:100088002F3020008C003F3024008C0020008C167C
:10009800F70132307702031865280530F6000F3073
:1000A800F500F430F400F40B5728F50B5728F60B3D
:1000B80057280130F4007408F70732307702031C20
:1000C800512821008C1220008C120630F40074088C
:1000D800F8007E30F4007408FA00BF30F4007408A9
:1000E800F90021009D0122009701043027009100AA
:1000F8000430920093018B158B1720000C128C1280
:10010800803188208031842820000C080339F100D0
:100118007108F2007208CB3E840080300318013E5B
:1001280085000008F1007108F300730878060319C8
:10013800A4287308F1007108F800780821009500D8
:100148007208D33E840080300318013E8500000801
:10015800F1007108F30073087A060319B7287308C9
:10016800F1007108FA007208CF3E8400803003184D
:10017800013E85000008F1007108F3007308790654
:10018800031908007308F1007108F9000800063423
:10019800053404340434BF34BF34D434EA347E34F0
:0601A8007E34AA34D434B9
:020000040001F9
:04000E00E4EFFFFF1D
:00000001FF
