:0400000080313128F2
:100008007E14803120007F08F0008B1D1D282700FA
:10001800131D1D2820000C162700131120008C1614
:100028008C16000020000C160C167B0895000B118E
:100038008B168B1A0B1D2C2820000C1E29280C123D
:100048007A0895000B118B162C288C128B120B1129
:1000580070082000FF007E10090080313328F90164
:10006800FA01FB017E10200080313A28F03021008F
:1000780099000630950023008C01EF3021008C0098
:100088002F3020008C003F3024008C0020008C167C
:10009800F701F80102307802583003197702031883
:1000A8006C280530F6000F30F500F430F400F40B3E
:1000B8005B28F50B5B28F60B5B280130F70700304F
:1000C800F83D02307802583003197702031C55288E
:1000D80021008C1220008C120630F4007408F900FC
:1000E8007E30F4007408FB00BF30F4007408FA0096
:1000F80021009D012200970104302700910004305F
:10010800920093018B158B1720000C128C128031F2
:100118008F2080318B2820000C080339F1007108EA
:10012800F2007208D23E840080300318013E850038
:100138000008F1007108F300730879060319AB2869
:100148007308F1007108F900790821009500720818
:10015800DA3E840080300318013E85000008F10073
:100168007108F30073087B060319BE287308F100B1
:100178007108FB007208D63E840080300318013EE7
:1001880085000008F1007108F30073087A06031966
:1001980008007308F1007108FA00080006340534F5
:1001A80004340434BF34BF34D434EA347E347E3467
:0401B800AA34D4345D
:020000040001F9
:04000E00E4EFFFFF1D
:00000001FF
